:400000000010002011000000250500002505000080B500AF00F090FA80B500AF1B4B1B4A12688021C9020A431A60182001F0E4FC164B164A126816490A401A60154B164A4A
:400040001A60164B11221A60154B20221A60154B10221A60144B30221A60144B802212061A600A4B00221A60114B124A1A60124B124A1A60124B134A1A60134B134A1A6053
:40008000134B00221A60C046BD4680BD00010B40FFFFFBFF04010B40060000800802024014020240180202402002024008010B4000000240FE00008040000240FE0000C02E
:4000C000800002400100008004000240190000800C020B4080B582B000AF72B6FB1D00221A7022E0FB1D1A7813005B009B185B00454A9B183B603B681A78597809020A4320
:40010000997809040A43DB781B06134318003B681A795B791B0213439BB2190000F070F9FB1D1A78FB1D01321A70FB1D1B78012BD8D9364A364B1100180000F071F9354B2B
:40014000C02292041A60344BEE2212021A60334B99221A60324B992212041A60314B992212041A60304B802292051A602F4B992212041A602E4B992212041A602D4B80225D
:4001800092051A602C4A2C4B1B78DBB23C218B43DBB214210B43DBB21370284A274B1B78DBB216210B43DBB21370254BFF221A60244B8022D2031A60234B7F221A60234BDB
:4001C000FF221A60224BD82212041A60214BBF221A60214B01221A60204B01221A60204BD82212011A601F4B06221A601E4B31221A601E4B06221A60FFF70EFF00F052F918
:40020000C046BD4602B080BDDC34000000350000E8340000040001400C0001401000014000500F4010500F4018500F4020500F4030500F4038500F4001700F4000700F4099
:4002400000000440080004401800044000010440080104401801044000020440180204400803044000040440080404401804044010B5064C2378002B07D1054B002B02D0B6
:40028000044800E000BF0123237010BDE801002000000000D8340000084B10B5002B03D00749084800E000BF07480368002B00D110BD064B002BFBD09847F9E700000000DC
:4002C000EC010020D8340000C80000200000000090B583B000AF62B601F0B0FA00F054FA01F06AFD00F060FEFC1C01F03DFD03002370FB1C1B78002B01D100F055FE00F08C
:400300007BFF00F0A3FAC04600F0CCFA031EFBD100237B6045E07B68180001F027F803001900314B7A689200D1502F4B7A689200D358012B1AD12D4B7A689200D358002B40
:400340000AD12A4B7A6892000121D150284B7A6892000121D15004E0254B7A6892000021D150244B012252421A8009E01F4B7A6892000021D1501E4B7A6892000021D1505A
:400380001B4B7A689200D3583033180001F034FD7B680B2B02DC2C2001F02EFD7B6801337B607B680C2BB6DD0A2001F025FD0D2001F022FD0F4B1B88180001F071FA0D4B5A
:4003C0001B88180002F0A8FE0B4A0C4B02F0A0F803000C001800210002F07CF803009AB2044B1A8080E7C04604020020380200206C0200206A030020AE47E17A14AEEF3F46
:4004000080B582B000AF786039603A687B680021180003F059F8C046BD4602B080BDC04680B586B000AF7860396000233B6100237B612FE07B699B007A68D3181B68BB60F3
:400440000F23FB18BA681A70BB68FF229343BB6018E03B695B003A68D3181B781A00BB68D31819003B695B003A68D3185B780B703B6901333B610F23FB181A780F23FB1894
:40048000013A1A700F23FB181B78002BE1D17B6901337B617B69052BCCD9C046BD4606B080BDC04680B500AF012000F003F8C046BD4680BD80B584B000AF0200FB1D1A7021
:4004C000154B1B68FB60FB1D1B78002B05D0FB68802212061343FB6003E0FB685B005B08FB600D4BFA681A600C4B1B68FB60FB1D1B78002B05D0FB68802292041343FB6086
:4005000003E0FB68064A1340FB60044BFA681A60C046BD4604B080BD80031A4008010B40FFFFFFFD80B500AF02F0A2FF03001B680C2B00D1FEE7FEE780B586B000AF224BD1
:400540007B61224B3B61204B7B6135E03B691B68FB603B695B68BB603B699B683B6000237B600CE0FB681A68BB681A60BB680433BB60FB680433FB607B6804337B607A6847
:400580003B689A42EED13B69DB683B6000237B6008E0BB6800221A60BB680433BB607B6804337B607A683B689A42F2D13B6910333B617B69013B7B617B69002BC6D102F031
:4005C0005DFFFFF785FEFEE701000000F836000080B582B000AF00237B600FE07B68032B04D8104B7A689200D35800E00E4B0F4A796889008B507B6801337B607B682F2B22
:40060000ECD9FFF767FD0A4B00221A608023DB058022D205126801210A431A60C046BD4602B080BD000000002505000000000020C000002080B582B000AF0121072000F0DA
:400640006FFB00237B6007E07B680221180000F03FFC7B6801337B607B680D2BF4D900F009F8002000F09AFB00F038F9C046BD4602B080BD80B582B000AF254B1B68DAB2C4
:40068000244B1A70234B1B787B607B680F2293437B60214B1B78DBB21A000F2313407A6813437B607B68F02293437B601A4B1B78DBB21A00F02313407A6813437B60144B45
:4006C0007A681A60154B164A1A60164B164A1A60164B1B687B607B68154A13407B607B68C022D20013437B60104B7A681A600F2001F004FB0F4B19000F2001F06FFA03213C
:400700000F2001F091FAC046BD4602B080BDC04600FF08406C03002062F1FF0F0800084000020001040008400008A00110000140FFF0FFFF0114000080B582B000AF01F037
:4007400031F901F0F7F80021002001F001F90021002001F035F901F017F901F0DDF8084B1B687B607B68074A13437B60044B7A681A600F2001F0ACFAC046BD4602B080BD9D
:40078000040008400010088080B500AF0C4B1B78002B04D1FFF74EFF094B01221A70FFF7CBFF00F099FE074B01221A70064B064A12688021C9030A431A60C046BD4680BD68
:4007C000C0020020A00200200400084080B584B000AF0200FB1D1A70FB1D1A78FB1D01321A70FB1D1B780E2B0CD0FB1D1A78094B1100180000F0ECFA0300FB60FB68002B25
:40080000EAD000E0C046FB1D1B781800BD4604B080BDC046CC00002080B582B000AF7860084B00221A707B68DAB2074B1A70054B81221A707B68180000F068F9C046BD4665
:4008400002B080BDA2020020A302002080B500AF124B00221A70124BFF221A70104B1B78DBB21800FFF7B2FF03001A000C4B1A700B4B1B78DBB20D2B0DD8084B1B78DBB2CD
:4008800001221343DAB2054B1A70054B1B78DBB2180000F03BF9C046BD4680BDA2020020A302002080B500AF044B1B78DBB21A00012313401800BD4680BDC046A2020020D8
:4008C00080B582B000AF7860034B7A685200D35A1800BD4602B080BDA402002080B582B000AF00237B6006E07B68180000F070F87B6801337B607B680D2BF5D9C046BD465A
:4009000002B080BD90B587B000AF78602C4A7B68D3181B787B612B4A7B68D3181B781322BA18191C0B1CDB185B181370254A7B68D3181A781223FB1892001A701123FC1875
:4009400001F0F0FA030023701F4B7A699200D3581B68FB601223FB181B780F229A401300DA43FB681340FB601223FB181B7804229A401300FA681343FB60144B7A69920022
:40098000D358124A796989008A581268132179180978072088400100C9430A401A600A4B7A699200D358FA681A601123FB181B78180001F0BBFAC046BD4607B090BDC04667
:4009C000303500007835000098350000AC35000090B589B000AF7860464A7B68D3181B78BB61454A7B68D3181A781723FB1892001A70414A7B68D3181B781622BA18191CA2
:400A00000B1CDB185B1813700023FB613B4A7B68D3181B783B613A4BBA699200D358384AB96989008A5812681721791809780F2088400100C9430A401A603B69022B43D0C1
:400A40003B69012B01D00623FB610F23FC1801F069FA030023702B4BBA699200D3581B68BB601623FB181B7807229A401300DA43BB681340BB601623FB181B78FA699A406D
:400A80001300BA681343BB601E4BBA699200D358BA681A600F23FB181B78180001F046FA194BBA699200D358174AB96989008A5812681148796841180978080001218140DF
:400AC000C9430A401A6010E00D4BBA699200D3580B4AB96989008A5811681722BA1812780520904002000A431A60C046BD4609B090BDC0463035000078350000980300206E
:400B000098350000AC350000C035000090B587B000AF78601323FB1857497A688A1812781A701323FB181A78544B9200D358FB60534A7B68D3181B789BB2013B9BB2002107
:400B4000180000F005FF4F4A7B68D3181B789BB2013B9BB20021180000F032FF4A4B1B78002B43D00F2001F0C9F8484B1B687B617B69402213437B617B69802293437B6156
:400B80000B23FB183F497A688A1812781A700A23FB183B497A688A1812781A700B23FB180B22BA180A217918127809784A431A700B23FB181A7813001B039B1A1B0418006A
:400BC0000A23FB181B781322BA1811782B4A89008A585343984203D27B69802213437B612A4B7A691A600F2001F072F80F2001F085F8274B1B687B617B69264A13407B6168
:400C0000254A7B68D3181B781900244A7B68D3181B781B040B437A6913437B611C4B7A691A601A4B1B687B617B691D4A13407B617B691C4A13437B610F2001F049F87B68B8
:400C40001800FFF75FFE0923FC1801F06BF9030023700E4B7A691A60002001F059F9124BFA681A600923FB181B78180001F05EF9C046BD4607B090BD883500000801002067
:400C8000B803002084030020A1020020040008400800084000FF80FFA803002074030020FF1FDFFF202020000C00084080B584B000AF7860144B1B6899B2144B7A68520013
:400CC000D1527B681800FFF783FE0F2001F016F80F4B1B68FB60FB680E4A1340FB60FB68A02212021343FB60094BFA681A600A4B094A126809490A401A600F2000F0E8FF38
:400D0000C046BD4604B080BD0C000840A402002004000840FF1FDFFF0800084000FF80FF80B584B000AF786039601A4B3A689200D258184B39688900CB58186879680B0021
:400D40005B005B18072199400B00DB4303401360114B3A689200D3581B68FB607B689B000F229A401300DA43FB681340FB607B689B0005229A401300FA681343FB60064B6C
:400D80003A689200D358FA681A60C046BD4604B080BDC046AC3500009835000080B584B000AF78607B68032213407B60074B1B68FB607B685B02FA681343FB60034BFA68F1
:400DC0001A60C046BD4604B080BDC0460400084080B584B000AF786039603B68DB08FB603B680722134001229A400B23FB181A707A68FB68D3181B780B22BA18127813403D
:400E0000DBB2002B01D0012300E000231800BD4604B080BD80B586B000AFF860B9607A60BB68DB087B61BB680722134001229A401323FB181A707B68002B0DD0FA687B690F
:400E4000D318F9687A698A1811781322BA1812780A43D2B21A700EE0FA687B69D318F9687A698A181278132179180978C943C9B20A40D2B21A70C046BD4606B080BDC04676
:400E800080B584B000AF78600023BB600023FB6015E07B681800FFF7BFFCC046FFF702FD0300012BFAD07B681800FFF709FD03001A00BB689B18BB60FB680133FB60FB6897
:400EC000002BE6D0BB689BB21800BD4604B080BD80B582B000AF786039603B68D9B2044A7B68D3180A1C1A70C046BD4602B080BD9803002080B584B000AF78600F23FB182C
:400F000016497A688A1812781A70154B7A685200D15A144B7A685200D152134A7B68D31800221A70114A7B68D31800221A700F23FB181B780F22BA1812780D49895C0D4AA2
:400F4000D154074B7A685200D15A0B4B7A685200D152C046BD4604B080BDC04688350000A4020020C4020020E0020020F00200205001002004030020F803002080B582B057
:400F800000AF78607B681800FFF746FCC046FFF789FC031EFBD17B681800FFF7ABFFC046BD4602B080BDC04680B582B000AF00237B6006E07B681800FFF7E0FF7B6801338F
:400FC0007B607B680D2BF5D9C046BD4602B080BD90B587B000AF78600F23FB1872497A688A1812781A700F23FB181A780E23FB186E498A5C1A701023FB186D4A7968490031
:401000008A5A1A806B4B1B78002B15D06A4B7A685200D25A1023FC181023FB181B881100180000F0CFF903002380634B7A685200102179180988D1527B68D9B25C4A5F4BF7
:40104000180001F037F85E4B7A685200D35A1022BA1812889A4212D35A4A7B68D31800221A70574B7A685200D25A1223FB181021791809888A1A1A8001237B610CE0504B4F
:401080007A685200D15A1223FB181022BA1812888A1A1A8000237B617B69002B2AD10F23FB181B78484AD35C9BB21222BA1812889A421FD9434A7B68D3181A7843497B68EE
:4010C000CB181B789A4209D37B681800FFF712FF3C4A7B68D31800221A703AE0394A7B68D3181B780133D9B2364A7B68D3180A1C1A702EE0324B7A685200D35A1B02BB60E1
:40110000334A7B68D3181B781A00BB681343BB601023FB181B88BA68D318BB60284B7A685200D35A1A00BB689B1ABB60BB681B0A99B2234B7A685200D152BB68D9B2244ABD
:401140007B68D3180A1C1A701E4A7B68D31800221A700E23FB181B789BB21222BA1812889A4217D97B69002B14D01223FB181B88FF2B05D9174A7B68D318FF221A700EE0D1
:401180001223FB181B88D9B2124A7B68D3180A1C1A7004E00F4A7B68D31800221A70C046BD4607B090BDC0468835000014040020A40200204E010020F80300205404002058
:4011C000C402002024040020D803002040010020E0020020F002002080B582B000AF78607B68180000F0F4F97B681800FFF7F0FEC046BD4602B080BD80B582B000AF00237B
:401200007B6011E07A680C4B11001800FFF7E0FD03003B603B68002B03D07B681800FFF7DBFF7B6801337B607B680D2BEAD9C046BD4602B080BDC046CC00002080B584B080
:4012400000AF78600F23FB1841497A688A1812781A700F23FB181A780E23FB183D498A5C1A700F23FB181A780D23FB183A498A5C1A700F23FB181A780C23FB1837498A5CE3
:401280001A700B23FB180F22BA1812781A707A68334B11001800FFF79BFD031E1CD0314A7B68D3181B7819000E23FB181A780D23FB181B78D31A99423BDA7968284B002234
:4012C0001800FFF7A7FD0B23FB181B78264A0C2179180978D1542CE0224A7B68D3181B7819000E23FB181A780D23FB181B78D318994216DB0B23FB181B781B4AD25C013A9D
:40130000D1B2194AD1540B23FB181B78164AD35C002B0ED17968124B01221800FFF77AFD07E00B23FB181B780F4A0C2179180978D1547A680A4B11001800FFF749FD031E1A
:4013400001D0012300E000231800BD4604B080BD88350000C8030020E80300205001002000030020F00200200403002080B586B000AF7860114A7B68D3181B787B61104A05
:401380007B68D3181B781A007B69D318FB6000233B617B691800FFF751FF031E01D001233B617B6901337B617A69FB689A42F0D33B691800BD4606B080BDC046D43500003B
:4013C000E435000080B584B000AF0200BB1D1A803B1D0A1C1A80BB1D1B88FB603B1D1B881A013B1D1B88D31AFA68D318FB60FB681B09FB60FB689BB21800BD4604B080BD16
:4014000080B500AF0F2000F079FC2D4B01221A602C4B1B78DBB21800FFF748FC2A4B1B78DBB25BB2002B08DA274B1B78DBB201229343DAB2244B1A703CE0224B1B78DBB2CE
:401440001800FFF7C3F903001A001E4B1A701D4B1B78DBB20D2B06D81A4B1B78DBB21800FFF754FB26E0184B1B78DBB201229343DAB2154B1A70144B1B78DBB21A0040231E
:40148000134017D0114B00221A700FE00F4B1B781A000E4B1B7819000D4B595C0D4B99540A4B1B780133DAB2084B1A70074B1B78012BEBD90F2000F00BFCC046BD4680BDD7
:4014C00014000840A3020020A20200201303002094030020CC00002080B582B000AF334B0E221A70314B0E225A70304B0E229A702E4B1822DA802D4B2D4A9A802B4B2D4AB2
:401500009A6000F0DFF800233B6007E02A4B3A6892002A49D1503B6801333B60234B5B781A003B689A42F1D800237B600CE0244A7B68D31804221A70224A7B68D3180222BF
:401540001A707B6801337B607B680D2BEFD900F0C7F81D4A154B1100180000F00BFD134B180000F018FD194B01221A70164A0F4B1100180000F0FEFC0C4B180000F02CFD94
:401580000A4B180000F0C6F800237B6006E07B68180000F01DF87B6801337B607B680D2BF5D9C046BD4602B080BDC046540400206602000004360000080100200000FF0F02
:4015C00084030020B80300209A0D0000A102002090B587B002AF7860344A7B68D3181B78FB607B68D9B2FB68DAB2314C3148324B0093230000F0DCFD0B23FB182C49FA6859
:401600008A1812781A702C4AFB68D31819782B4AFB68D3180A1C1A700B23FB181B78DB2B0AD80B23FB181B78DB08D9B2244AFB68D3180A1C1A7034E00B23FB181B78EC2BC3
:401640000AD80B23FB181B781B09D9B21C4AFB68D3180A1C1A7024E00B23FB181B78F42B0AD80B23FB181B785B09D9B2144AFB68D3180A1C1A7014E00B23FB181B78F92BBD
:401680000AD80B23FB181B789B09D9B20C4AFB68D3180A1C1A7004E0094AFB68D31800221A70C046BD4605B090BDC04688350000C80300205404002014040020D80300205C
:4016C000E803002080B500AF044B044A126840218A431A60C046BD4680BDC0460400084080B582B000AF094B1B687B607B68084A13407B607B688022920013437B60034BE3
:401700007A681A60C046BD4602B080BD08000840FFFCFFFC80B584B000AF78600023FB6019E01C4AFB68D3181B785B08D9B21A4AFB68D3180A1C1A70164AFB68D3181B78D0
:4017400001335B08D9B2134AFB68D3180A1C1A70FB680133FB607B681B781A00FB689A42DFD80F2000F0CAFA0C4B1B68BB60BB680B4A1340BB60BB680A4A1343BB60074B7C
:40178000BA681A600F2000F0A3FAC046BD4604B080BDC046A80300207403002008000840FFFCFFFC0002000180B500AF104B8022D2041A600E4B0E4A12681A60002000F040
:4017C0004FF80B4B0A4A12681A600A4B0C221A60002000F093F8084B31221A60074B180000F04EF8012000F05BF8C046BD4680BD000105402401054028010540FFFF0000E6
:4018000090B583B000AFFC1D00F08CFB03002370094B094A126801210A431A60FB1D1B78180000F083FB1821012000F049F8C046BD4603B090BDC0460000054080B500AF5D
:40184000064B1B78002B04D1FFF7AEFF034B01221A70FFF7D5FFC046BD4680BD1403002080B582B000AF7860044B7A681204120C1A60C046BD4602B080BDC0460801054086
:4018800080B582B000AF7860044B7A681204120C1A60C046BD4602B080BDC0461401054080B582B000AF7860044B7A681204120C1A60C046BD4602B080BDC0460C010540E6
:4018C00090B585B000AF786039600F23FC1800F029FB03002370084B79683A6891400A001A600F23FB181B78180000F01FFBC046BD4605B090BDC0460800054080B582B074
:4019000000AF7860034B7A681A60C046BD4602B080BDC0463801054080B500AF044B044A1268802109060A431A60C046BD4680BD0000024080B500AF044B044A12685200B3
:4019400052081A60C046BD4680BDC0460000024080B584B000AF0200BB1D1A807B1D0A1C1A70084B1B681B0C1B04FB60BB1D1A88FB681343BB60034BBA681A60C046BD4679
:4019800004B080BD0000024080B500AF044B044A1268802109060A431A60C046BD4680BD4000024080B500AF044B044A1268520052081A60C046BD4680BDC04640000240CB
:4019C00080B584B000AF0200BB1D1A807B1D0A1C1A70084B1B681B0C1B04FB60BB1D1A88FB681343BB60034BBA681A60C046BD4604B080BD4000024090B585B000AF7860E7
:401A00000C23FC1800F08EFA030023707B68022B00D8AFE07B68302B00D9ABE05C4B1B78DBB21A007B689A420AD35A4A0F23FB1812781A70584A0E23FB1812781A703FE0A9
:401A4000564B1B78DBB21A007B689A420AD3544A0F23FB1812781A70524A0E23FB1812781A702DE0504B1B78DBB21A007B689A420AD34E4A0F23FB1812781A704C4A0E23CE
:401A8000FB1812781A701BE04A4B1B78DBB21A007B689A420AD3484A0F23FB1812781A70464A0E23FB1812781A7009E0444A0F23FB1812781A70434A0E23FB1812781A7011
:401AC0007B68DA1E0B23FB183F498A5C1A700B23FB181B782F2B0DD97B682A2B0AD93B4B19221A60052000F013FA0D23FB1819221A7007E0354B1B68DAB20D23FB183F2125
:401B00000A401A700B23FA180D23FB1812781B789A4208D22D4B7A68033A2B498A5C1A60052000F0F5F92A4B7A6826498C4662441278D2B21A60274B0F22BA1812781A60CE
:401B4000254B0E22BA1812781A60052000F0F8F80B23FA180D23FB1812781B789A420CD91A4B7A68033A18498A5C1A60052000F0CFF902E0002000F0D7F80C23FB181B78D1
:401B8000180000F0D3F9C046BD4605B090BDC046C0F1FF0FC1F1FF0FC2F1FF0FC3F1FF0FC4F1FF0FC5F1FF0FC6F1FF0FC7F1FF0FC8F1FF0FC9F1FF0FCAF1FF0FCBF1FF0F0A
:401BC000CCF1FF0FCDF1FF0F603600002CFF0B4028FF0B401CFF0B4020FF0B4080B584B000AF02003960FB1D1A7080239B05FB60FB1D1B781F2B02D9002000F095F8FB1D88
:401C00001B7810339B00FA68D3181B68BB60FB1D1B7810339B00FA68D3183A681A60BB681800BD4604B080BD90B587B000AF0200FB1D1A70BB1D0A1C1A70BB1D1B78032B37
:401C400002D9002000F070F8FB1D1B781F2B02D9002000F069F8FB1D1B7803221340DB0006337B611323FC1800F05CF903002370FB1D1B789B08DBB29B00144A9446634443
:401C80001B68FB6003227B699A401300DA43FB681340FB60BB1D1A787B699A401300FA681343FB60FB1D1B789B08DBB29B00074A94466344FA681A601323FB181B781800BC
:401CC00000F034F9C046BD4607B090BD00E400E080B582B000AF0200FB1D1A70064BFA1D12781F210A40012191400A001A60C046BD4602B080BDC04600E100E080B582B023
:401D000000AF0200FB1D1A70064BFA1D12781F210A40012191400A001A60C046BD4602B080BDC04680E100E080B582B000AF0200FB1D1A7001BEC046BD4602B080BDC046A7
:401D400080B582B000AF0200BB1D1A80BB1D1B88044A12785343180000F0DAF8C046BD4602B080BD7801002080B500AF044B1B6880221340DB09DBB21800BD4680BDC0460B
:401D80000400044080B500AF00F04CF8C046BD4680BDC04680B500AF064B064A1268802109060A431A6000F019F800F01DF8C046BD4680BD0000064080B500AF064B1B78A7
:401DC000002B04D1FFF7DEFF034B01221A70FFF7E1FFC046BD4680BD1603002080B500AFC046BD4680BDC04680B500AF00F078F8C046BD4680BDC04680B582B000AF786012
:401E0000C046064B1B680F221340082BF9D0044B7A681A60C046BD4602B080BD080206404002064080B500AF1A4B1B4A1A601B4B00221A601A4B1B4A1A601B4B1B4A1A601A
:401E40001B4B07221A601B4B00221A601A4B01221A601A4B154A1A60194B00221A60194B00221A60184B00221A60184B00221A60174B00221A60174B00221A60164B00229A
:401E80001A60154B1B689AB2144B1A80C046BD4680BDC0460000064007000002400006404800064001000A000003064007000080040306401003064044000640000206407E
:401EC00004020640880E0640C80E0640480F0640080F0640C80F0640880F06401803002080B500AF074B074A1268F0218A4390210A431A60044B054A12881A60C046BD465D
:401F000080BDC04610000140880F0640180300200230800804D0C0460138FDD1C046C046C0467047EFF3108072B6704780F310887047C046F7B59C180023071C08268025FF
:401F4000019100922370237800982B432370BB689B6C9847019B984202D22378AB432370013E6D08002EEED12378F82B01D9F8232370F7BD70B5051C0E1C00242B789C4257
:401F800008D2AB68221C281C311C1B68FFF7D2FF0134F3E770BD38B5051C00242B789C4219D2AA6813681B5DDB080F2B00D90F23D16BD268C95C1155AA68042B04D9936DF5
:401FC000906B211C012203E0936D906B211C002298470134E2E738BDF0B5041C002687B063789E4262D2A3685A6C925D0392002A01D1013203921A6C925D01920199227811
:40200000914251D29A689B69515C0F221140B2000492002205910499019D5A50019B5B000293039B019A9B189D423DD2A768E388A0885843FB68595D00F060F93B68595D32
:4020400000F0D2F8059B5843194B40005A2802D95B084008FAE7BA6904991B0C1B045350A36882085B6B01215855A368C008DB69029F5A550F22A36849421B6A5855A368A0
:402080005B6A5A55A368986AC1530021D86AC153186B9B68C1535B19197801350A401A703B1C02330293BCE7013699E707B0F0BD0000FFFFF0B585684E002B6B925B9B1977
:4020C0001C8887B0141B0094AC6A1A80A45B6B6A0294EC6A5F5CA45B2B6A03946C6B7F00645C5B180494AC680193645C1B780594009CE40FA4460F24251C6744009C3D4086
:40210000AC46E51764196C409C4203D2012B05D0013B00E00133FF273F2B00D89F00019D2B7065460F2D29D0002D24D0BC4225D8059C029F24090094974200D9171C039DC0
:40214000954200D2151C009A092A01D8141C01343A1C0A2C14D1EA1B934206D9049A92089A42924152429B1A00E001338268D26953543A1C04E0151C644601E0151C0024F5
:402180006746836824015B6A5F5483689F6ABA53DA6A9B6895530F225B181D782A401A7083689B6859180B781C430C7007B0F0BD70B58068446BC069655C405CFF213F28A3
:4021C00001D88100C9B246B2FF24002E01DB4000C4B28D4201D9291C6C08012081439954049B9C5470BD0000002243088B4274D303098B425FD3030A8B4244D3030B8B42E7
:4022000028D3030C8B420DD3FF22090212BA030C8B4202D31212090265D0030B8B4219D300E0090AC30B8B4201D3CB03C01A5241830B8B4201D38B03C01A5241430B8B4231
:4022400001D34B03C01A5241030B8B4201D30B03C01A5241C30A8B4201D3CB02C01A5241830A8B4201D38B02C01A5241430A8B4201D34B02C01A5241030A8B4201D30B0272
:40228000C01A5241CDD2C3098B4201D3CB01C01A524183098B4201D38B01C01A524143098B4201D34B01C01A524103098B4201D30B01C01A5241C3088B4201D3CB00C01A69
:4022C000524183088B4201D38B00C01A524143088B4201D34B00C01A5241411A00D20146524110467047FFE701B5002000F0F0F802BDC0460029F7D076E7704703460B437B
:402300007FD4002243088B4274D303098B425FD3030A8B4244D3030B8B4228D3030C8B420DD3FF22090212BA030C8B4202D31212090265D0030B8B4219D300E0090AC30BA6
:402340008B4201D3CB03C01A5241830B8B4201D38B03C01A5241430B8B4201D34B03C01A5241030B8B4201D30B03C01A5241C30A8B4201D3CB02C01A5241830A8B4201D3AD
:402380008B02C01A5241430A8B4201D34B02C01A5241030A8B4201D30B02C01A5241CDD2C3098B4201D3CB01C01A524183098B4201D38B01C01A524143098B4201D34B01AF
:4023C000C01A524103098B4201D30B01C01A5241C3088B4201D3CB00C01A524183088B4201D38B00C01A524143088B4201D34B00C01A5241411A00D20146524110467047CA
:402400005DE0CA0F00D04942031000D34042534000229C4603098B422DD3030A8B4212D3FC22890112BA030A8B420CD3890192118B4208D3890192118B4204D389013AD02D
:40244000921100E08909C3098B4201D3CB01C01A524183098B4201D38B01C01A524143098B4201D34B01C01A524103098B4201D30B01C01A5241C3088B4201D3CB00C01A9E
:40248000524183088B4201D38B00C01A5241D9D243088B4201D34B00C01A5241411A00D20146634652415B10104601D34042002B00D54942704763465B1000D3404201B5EE
:4024C000002000F005F802BD0029F8D016E770477047C04670B500220C4B04000D0000F091FE002804D12000290000F0DFFD70BD064B00222000290000F084FA00F0D6FD54
:4025000080231B069C466044F1E7C0460000E041F0B55F4656464D464446F0B40D0399464E002B0B87B00700924680469B46760DCC0F002E69D06D4B9E4235D05B468022D6
:40254000DD001204430F13432B439B46C3009846674B00279C460023664401934A4615035000D20F53462D0B400D914600D176E05E4A90426CD080225B0F120413435C4AEB
:40258000ED0094461D4353460022DB00604449463618701C6140029017430F2F00D9AFE05448BF00C759BF465B461F4300D088E000239B469846023308270193CEE7494645
:4025C000022A6AD0032A00D109E2012A00D0BBE111400022002300259046CCB200212D030A0D12052D0B1543434A1B0515401D436D00E4076D0825434046290007B03CBCE2
:4026000090469946A246AB46F0BD034352D05B46002B00D18AE1584600F0FEFD03000B3B1C2B00DD7BE11D22D31A3A0001005D46DA4008398D4013008F402B439B46B8463C
:402640002E4B00279C46002360444642019385E752462A432CD100250023022297E752462A4321D0002D00D154E1280000F0D4FD03000B3B1C2B00DD46E11D21CB1A51463D
:402680000200D9405346083A954093400D431B4A944660444042002279E7012400220C40124B0025904699E70025002301226EE703226CE700239B469846013304270193CD
:4026C0004CE703230C27019348E700238025984600242D03054B81E75D464346019A6FE75D4643462100019A6AE7C046FF07000001FCFFFF90360000FFFF0F80F303000033
:402700004246120C91461A0C9446424617044A461B041B0C5A43604690464A4642431000039262461C003F0C7A437C4342440192220C9246019A5244904506D982468020D9
:4027400040028046C24450460390100C049048462404240C1204121905922A0C2D042D0C68432C00824648467C4350438146200C8046574357444744BA4503D9802040025F
:402780008046C144380C3F04B84648442404240C01900498A044404404905846000C814658460404200C8246070048465F434C464343604660436446834650464443380C45
:4027C0008446E4186444A34203D980235B029C46E34448463F04230C3F0C2404E419574668436F4384464D46504655434243380C814662444A445B44944503D980204002B2
:402800008446654403983F04834604983F0C8446E344C345804140428246100484460198674484466744A344BC46A345A4419946D44464428742BF41D4458041E144A046FB
:4028400099459B417F424042C8440743120CBA18A045A4415F423B0064422343D71843467D19DB0D6D021D435B465A02059B1A43531E9A415B46DB0D1A4343465B02134336
:40288000EA0107D501225C0813402343EA07029E13436D08574AB218002A4BDD580709D00F201840042805D0181D98429B415B42ED180300E80104D54F4A15408022D20084
:4028C000B2184E48824200DDE7E60124DB08680718436D02530580462D0B5B0D0C407DE6802259461203114208D0154206D115432D0398462D0B4C46414B6FE65D461543A1
:402900002D032D0B3E4B69E603005546283B9D400023BCE6504600F07FFC2030A8E60300283B9F400023BB46984689E600F074FC203073E60124A61A382E07DD00220C4079
:4029400000230025904649E6029EA3E71F2E20DC20222C001800921BF040944093400443581E83411C43F540630709D00F232340042B05D023001C1D9C4292415242AD1836
:402980002B021FD5012400220C4001230025904624E61F202C004042821AD440202E1CD04022961BB5402B43581E83410720234318400025002809D00F2200251A401C00DC
:4029C000042AD8D1230068076D022D0B0124DB08034398460C40002300E60025E3E780220124120315432D0398462D0B0C40044BF4E5C046FF030000FFFFFFFEFE07000061
:402A0000FF070000F0B557464E464546E0B40E001100F20F9246C500420F180337037400400A4E0F7F0A3043CF4E17435A00640D520DDB0FC900B24200D1E5E00126734069
:402A4000A61AB446534500D1AFE0002E00DC0DE1002A3AD103000B4300D0E4E06B0709D00F232B40042B05D02B1DAB42AD416D427F191D003B0200D488E0BB4B01349C428D
:402A800000D110E13A00B94B51461A4001235007ED08520264050543120B640D0B400021280012030D0D120B64052D0515436208AF4CDB072C401443640064081C432100F5
:402AC0001CBC90469946A246F0BDA74B9C42C5D080231B0418436346382B00DDFDE01F2B00DD30E1624620239B1A02009A40664690460A009940F24046464B1E99413243DD
:402B0000114363460200DA40691A8D429B410D00BA1A5B42D71A3B0235D57A02530A98464346002B00D1C4E0404600F075FB0300083B1F2B00DDC5E020222900D21A4746DC
:402B4000D1409F400A009D403A439C4200DDC0E01C1B631C1F2B00DDE4E0202114002800C91AD8408C408D400443DA40681E854117002543002471E7424663461A4300D1ED
:402B80004CE2674645466B0700D069E7012351467807ED08FA080B40054373498C4238D012036405120B640D79E7002E00DC9AE0002A47D06C4A944200D14FE7802212044B
:402BC00010436246382A00DC08E10143481E81410022C9B24919D219A942BF410D007F42BF183A0200D442E15F4A0134944200D14EE101205D4A69083A4028400843D507A4
:402C0000054357089A4629E706000E4300D017E714E72900114300D1F9E1802109030A431203120B3BE701235B429846C4446346002B72D1691A8D429B413F1A5B42FF1A6C
:402C40000D0068E702000A4300D107E7012252429046C4446246002A00D0E6E06918A942B6413F187642F7190D00BAE7002E00D080E0621C5205520D012A00DCF9E06A1AC7
:402C800091464D45B6413A1A7642921B9046120200D499E04D1BA9428941C71B49427A1A90469A463CE752460123002513400022F5E6280000F0B0FA20300300083B1F2BFA
:402CC00000DC39E72A002838824000259C4200DC3EE7264FE41A1740C0E60143481E81410022C9B210E7002E00D0F1E0621C94465205520D012A00DCA0E01B4A944500D1A5
:402D0000C5E06918A94292413F185242D2194908D5070D4357086446A0E6134B9C4200D0D9E69BE611001F3CE1400C00202B00D180E04021CB1A9A4015436A1E954100276F
:402D4000254300241FE763460200203BDA406346202B71D0402366469B1B98400143481E814111430022CFE6FF070000FFFF7FFFFFFF0F80002C48D0CA4CA24200D1A2E098
:402D80007442A1468024240427434C46382C00DDDBE01F2C00DD44E14E462024A41B3E00A640A246B0464C462E00E640B4464646644626435446A5406C1EA54134002C43BB
:402DC0004D46EF400D1B28E04A4643464D461A4300D0A5E6002300240025DEE61F2A5ADC66462022921B060096409146B04662460E00D640424616434A4691404A1E914142
:402E0000020060463143C240E4E63C002C435AD0F443A146002C52D14D1BA9428941C71B49427F1A14009A4675E69E4A944200D0C7E613E600227FE700208FE7002C00D0A8
:402E4000C8E03B002B4300D10FE103000B4300D104E66918A9429B413F185B42DF193B0200D41AE1904B0D001F406446F6E59A4689E63A002A43002C5CD1002A75D1020067
:402E80000A4300D1CAE007000D009A46E6E564460022002581E662460600203AD6406246B046202A00D1B7E040226646921B904001434246481E8141114300228AE6794C9B
:402EC000A24200D061E707000D0014009A46C5E5002C41D13C002C4378D0F443A146002C20D0704CA24271D04C46382C00DDB2E01F2C00DDBCE02026341BA2463C0056465A
:402F0000B4404E46A0462C00F440A446444666463443A4465446A54064466E1EB54125434C46E7406D188D4289413F184942CF19140056E6002A2FD102000A4300D184E090
:402F400007000D009A46574C88E53D436F1EBD41ECB200270D1B60E7524CA24236D0744280263604A1463743BEE702000A4300D174E56A1A90464545B6413A1A7642921BDD
:402F80009446120200D4F7E54D1BA9428941C71B49427F1A9A4661E502000A433AD0ED087C072C438025FA082D032A4208D0C7082F4205D145072C003A009A46C9080C4307
:402FC000670FD200E5001743364C47E507000D00140043E53A002A4343D002000A4319D0ED087C072C438025FA082D032A4207D0C6082E4204D147073C003200C9080C436A
:40300000D700620FE50017439A46264C26E50022002544E5234C21E5002049E700230025BBE54C463E00203CE6404C46B446202C31D040244E46A61BB7403D436C1EA541C4
:4030400064462C4300270D1BE7E6802200231203144C0025A1E53D436F1EBD410027EDB260E707000D000F4CF8E407000D00F5E44E463C00203EF440A0464C46202C0ED0E2
:4030800040244E46A41BA7403D436F1EBD4144460027254346E70027CFE70D0073E50027F2E7C046FF070000FFFF7FFF0B0330B5134D1A0B4B005B0DC90F0024AB4211DD55
:4030C000104CA34210DC8024640322430E4CE41A1F2C0CDD0D48C31ADA4013005C42002900D11C00200030BD094BCC18FAE7E040084CA44663449A4013000343EEE7C0465B
:40310000FE0300001D0400003304000013040000FFFFFF7FEDFBFFFF70B5002830D0C317C4185C40C50F200000F076F8174B184A1B1AD21A1F2A18DD164AD21A9440002267
:4031400024035B05240B5B0D0021100024030A0D1205240B1443104A1B0514401C436400ED0764082C43210070BD210091400A000B21081AC4405B052403240B5B0DE3E741
:403180000025002300240022DEE7C0461E0400003304000013040000FFFF0F808446101C62468C46191C634600E0C0461FB500F0F5F8002801D40021C8421FBD10B500F01B
:4031C00049F84042013010BD10B500F0E7F8002801DB002010BD012010BDC04610B500F0DDF8002801DD002010BD012010BDC04610B500F06FF8002801DC002010BD0120F5
:4032000010BDC04610B500F065F8002801DA002010BD012010BDC0461C2101231B04984201D3000C10391B0A984201D3000A08391B09984201D30009043902A2105C4018A4
:403240007047C04604030202010101010000000000000000F0B55F4656464D464446F0B41F035C00DB0F9A46194B0E034D00C90F8046360B6D0D8B4691463F0B640D9D4236
:4032800019D0134B9C421BD00123A54206D018003CBC90469946A246AB46F0BDBE42F6D1C845F4D1D34510D0002DF0D1304303005A1E9341EBE7310001230143E7D1E0E7A7
:4032C0003A430123002AE2D1DEE70023DFE7C046FF070000F0B55F46444656464D46F0B41F033C0B2C4F0E034D00A3465C008446360B6D0DC90F9046640DDB0FBD422BD0E0
:40330000254FBC422ED0002D0ED130430700814678427841002C17D15F463A4314D14B460020002B0AD006E0002C02D15846024301D099421AD00123484218433CBC904657
:403340009946A246AB46F0BD0028F2D058425841012240421043F1E737000743D0D002204042EBE75F461743CDD0F8E7A542E2DC05DB5E45DFD808D000205E45DED2484235
:403380004841012340421843D8E7C445D3D80020C445F4D3D2E7C046FF070000F0B55F464D4644465646F0B41C03240BA4462F4C0F034D005E00C90F80463F0B6D0D8B4611
:4033C0009146760DDB0FA54220D0284CA64222D0002D12D1384344424441002E20D0002C0DD05C42634101245B421C4320003CBC90469946A246AB46F0BD002E17D05B453C
:4034000019D05B465C4201231C43EFE7390002240143EBD1D9E7614602241143E6D1D7E761460A43DBD100240028DFD0E9E761460A43E4D1E5E7B54203DD01225C42144387
:40344000D4E7B542CDDB6745DBD809D000246745CCD259464C426141012449420C43C5E7C845CED80024C845F3D3BFE7FF070000014B18687047C046E40100200E4B70B570
:4034800000251E000D4CE41AA410A54204D0AB00F35898470135F8E700F01CF9084B00251E00084CE41AA410A54204D0AB00F35898470135F8E770BDE0360000E03600007A
:4034C000E0360000E836000003008218934202D019700133FAE770470000000000300F40000400400F40000404300F4001310F4002330F4003410F4003420F400A430F409E
:4035000038803E4058045F011801B401E61062048E04D8406C407008DC03188061028C40A102B448B502C608D802E608EC0800000000000000000001010101010102000013
:403540000100000002000000040000000800000010000000200000004000000001000000020000000400000008000000100000002000000001000000000102030405060077
:403580000102030405000000000102030405060708090A0B0C0D00000000014004000140080001400C000140100001400800044008010440080204400803044008040440AE
:4035C0000000044000010440000204400003044000040440000102030405060708090A0B0C0D000001010101010101010101010101010000010101020202020404040404E5
:4036000004040404A8030020740300206001002084030020B80300208835000008010020340400204404002098040020A80400207C04002060040020C40400207003002048
:40364000F4350000D4350000E4350000810E00000D0B0000C1080000D10D0000150E0000030405060708090A0B0C0E0F101112131415161718191B1C1D1E1F20212223251D
:40368000262728292A2B2E2F303132333435000000270000C0250000C0250000BE250000D8260000D8260000CA260000BE250000D8260000CA260000D8260000BE25000019
:4036C000E0260000E0260000E0260000E028000043000000F8B5C046F8BC08BC9E46704799020000D1050000F8B5C046F8BC08BC9E4670477102000008370000C8000020D6
:4037000020010000F002000000000000FF3F0000080004400800044008000440080004400800044008000440080004400801044008010440080104400801044008010440A3
:4037400008010440080204400000FF0F0000FF0F0000FF0F0000FF0F0000FF0F0000FF0F0000FF0F0000FF0F0000FF0F0000FF0F0000FF0F0000FF0F0000FF0F0000FF0FEA
:403780001E1E1E1E1E1E1E1E1E1E1E1E1E1E0100050505050505050505050505050500000202020202020202020202020202000000366E01C05D0000180000000000E02E1A
:4037C000010000000000000000000000000000000000000000000000000000000000000000000000D0360000000000000000000000000000000000000000000000000000C2
:4038000000000000000000000000000000000000000000000000000000000000000000000000000084010020000000000000000000000000000000000000000000000000E3
:403840000000000000000000000000000000000000000000000000000000000000000000000000000000000000000000000000000000000000000000000000000000000048
:403880000000000000000000000000000000000000000000000000000000000000000000000000000000000000000000000000000000000000000000000000000000000008
:4038C00000000000000000000000000000000000000000000000000000000000000000000000000000000000000000000000000000000000000000000000000000000000C8
:403900000000000000000000000000000000000000000000000000000000000000000000000000000000000000000000000000000000000000000000000000000000000087
:0200000490303A
:020000007292FA
:0200000490402A
:200000000000000000000000000000000000000000000000000000000000000000000000E0
:0200000490501A
:0C000000000204C81193110104DA8425E9
:0200000490600A
:0100000001FE
:00000001FF